{
  "_format": "hh-sol-artifact-1",
  "contractName": "CertificateRegistry",
  "sourceName": "contracts/CertificateRegistry.sol",
  "abi": [
    {
      "inputs": [],
      "stateMutability": "nonpayable",
      "type": "constructor"
    },
    {
      "anonymous": false,
      "inputs": [
        {
          "indexed": true,
          "internalType": "string",
          "name": "certHash",
          "type": "string"
        },
        {
          "indexed": false,
          "internalType": "string",
          "name": "studentName",
          "type": "string"
        },
        {
          "indexed": true,
          "internalType": "address",
          "name": "issuer",
          "type": "address"
        }
      ],
      "name": "CertificateIssued",
      "type": "event"
    },
    {
      "anonymous": false,
      "inputs": [
        {
          "indexed": true,
          "internalType": "string",
          "name": "certHash",
          "type": "string"
        }
      ],
      "name": "CertificateRevoked",
      "type": "event"
    },
    {
      "anonymous": false,
      "inputs": [
        {
          "indexed": true,
          "internalType": "address",
          "name": "university",
          "type": "address"
        }
      ],
      "name": "IssuerAuthorized",
      "type": "event"
    },
    {
      "anonymous": false,
      "inputs": [
        {
          "indexed": true,
          "internalType": "address",
          "name": "university",
          "type": "address"
        }
      ],
      "name": "IssuerRevoked",
      "type": "event"
    },
    {
      "inputs": [],
      "name": "admin",
      "outputs": [
        {
          "internalType": "address",
          "name": "",
          "type": "address"
        }
      ],
      "stateMutability": "view",
      "type": "function"
    },
    {
      "inputs": [
        {
          "internalType": "address",
          "name": "_university",
          "type": "address"
        }
      ],
      "name": "authorizeIssuer",
      "outputs": [],
      "stateMutability": "nonpayable",
      "type": "function"
    },
    {
      "inputs": [
        {
          "internalType": "address",
          "name": "",
          "type": "address"
        }
      ],
      "name": "authorizedIssuers",
      "outputs": [
        {
          "internalType": "bool",
          "name": "",
          "type": "bool"
        }
      ],
      "stateMutability": "view",
      "type": "function"
    },
    {
      "inputs": [
        {
          "internalType": "string",
          "name": "",
          "type": "string"
        }
      ],
      "name": "certificates",
      "outputs": [
        {
          "internalType": "string",
          "name": "studentName",
          "type": "string"
        },
        {
          "internalType": "string",
          "name": "matricule",
          "type": "string"
        },
        {
          "internalType": "string",
          "name": "course",
          "type": "string"
        },
        {
          "internalType": "string",
          "name": "universityName",
          "type": "string"
        },
        {
          "internalType": "uint256",
          "name": "issueDate",
          "type": "uint256"
        },
        {
          "internalType": "bool",
          "name": "exists",
          "type": "bool"
        },
        {
          "internalType": "bool",
          "name": "revoked",
          "type": "bool"
        }
      ],
      "stateMutability": "view",
      "type": "function"
    },
    {
      "inputs": [
        {
          "internalType": "string",
          "name": "_certHash",
          "type": "string"
        }
      ],
      "name": "getCertificate",
      "outputs": [
        {
          "internalType": "string",
          "name": "name",
          "type": "string"
        },
        {
          "internalType": "string",
          "name": "matricule",
          "type": "string"
        },
        {
          "internalType": "string",
          "name": "course",
          "type": "string"
        },
        {
          "internalType": "string",
          "name": "university",
          "type": "string"
        },
        {
          "internalType": "uint256",
          "name": "date",
          "type": "uint256"
        },
        {
          "internalType": "bool",
          "name": "isValid",
          "type": "bool"
        }
      ],
      "stateMutability": "view",
      "type": "function"
    },
    {
      "inputs": [
        {
          "internalType": "string",
          "name": "_certHash",
          "type": "string"
        },
        {
          "internalType": "string",
          "name": "_name",
          "type": "string"
        },
        {
          "internalType": "string",
          "name": "_matricule",
          "type": "string"
        },
        {
          "internalType": "string",
          "name": "_course",
          "type": "string"
        },
        {
          "internalType": "string",
          "name": "_university",
          "type": "string"
        }
      ],
      "name": "issueCertificate",
      "outputs": [],
      "stateMutability": "nonpayable",
      "type": "function"
    },
    {
      "inputs": [
        {
          "internalType": "string",
          "name": "_certHash",
          "type": "string"
        }
      ],
      "name": "revokeCertificate",
      "outputs": [],
      "stateMutability": "nonpayable",
      "type": "function"
    },
    {
      "inputs": [
        {
          "internalType": "address",
          "name": "_university",
          "type": "address"
        }
      ],
      "name": "revokeIssuer",
      "outputs": [],
      "stateMutability": "nonpayable",
      "type": "function"
    }
  ],
  "bytecode": "0x608060405234801561001057600080fd5b50336000806101000a81548173ffffffffffffffffffffffffffffffffffffffff021916908373ffffffffffffffffffffffffffffffffffffffff16021790555061190c806100606000396000f3fe608060405234801561001057600080fd5b50600436106100875760003560e01c80638f2b91ea1161005b5780638f2b91ea146100fc578063ed0f2e7514610132578063f731fa0f14610167578063f851a4401461019757610087565b80626296791461008c578063142e1542146100a857806335318158146100c4578063436693d5146100e0575b600080fd5b6100a660048036038101906100a19190610ea4565b6101b5565b005b6100c260048036038101906100bd9190611017565b6102e1565b005b6100de60048036038101906100d99190611060565b6104c9565b005b6100fa60048036038101906100f59190610ea4565b61072b565b005b61011660048036038101906101119190611017565b610856565b604051610129979695949392919061121a565b60405180910390f35b61014c60048036038101906101479190611017565b610ae8565b60405161015e969594939291906112a5565b60405180910390f35b610181600480360381019061017c9190610ea4565b610dee565b60405161018e9190611322565b60405180910390f35b61019f610e0e565b6040516101ac919061134c565b60405180910390f35b60008054906101000a900473ffffffffffffffffffffffffffffffffffffffff1673ffffffffffffffffffffffffffffffffffffffff163373ffffffffffffffffffffffffffffffffffffffff1614610243576040517f08c379a000000000000000000000000000000000000000000000000000000000815260040161023a906113b3565b60405180910390fd5b6000600160008373ffffffffffffffffffffffffffffffffffffffff1673ffffffffffffffffffffffffffffffffffffffff16815260200190815260200160002060006101000a81548160ff0219169083151502179055508073ffffffffffffffffffffffffffffffffffffffff167f95a4c2ae425bb769549aa1a911911ff57c17ae811ae8c8962d0b9746fcb1539760405160405180910390a250565b600160003373ffffffffffffffffffffffffffffffffffffffff1673ffffffffffffffffffffffffffffffffffffffff16815260200190815260200160002060009054906101000a900460ff1661036d576040517f08c379a00000000000000000000000000000000000000000000000000000000081526004016103649061141f565b60405180910390fd5b60028160405161037d919061147b565b908152602001604051809103902060050160009054906101000a900460ff166103db576040517f08c379a00000000000000000000000000000000000000000000000000000000081526004016103d2906114de565b60405180910390fd5b6002816040516103eb919061147b565b908152602001604051809103902060050160019054906101000a900460ff161561044a576040517f08c379a00000000000000000000000000000000000000000000000000000000081526004016104419061154a565b60405180910390fd5b600160028260405161045c919061147b565b908152602001604051809103902060050160016101000a81548160ff02191690831515021790555080604051610492919061147b565b60405180910390207f266095b5af7e2323760fef151f1d78896740cd2cc1b73a6357ff9e4c3fdae74060405160405180910390a250565b600160003373ffffffffffffffffffffffffffffffffffffffff1673ffffffffffffffffffffffffffffffffffffffff16815260200190815260200160002060009054906101000a900460ff16610555576040517f08c379a000000000000000000000000000000000000000000000000000000000815260040161054c9061141f565b60405180910390fd5b600285604051610565919061147b565b908152602001604051809103902060050160009054906101000a900460ff16156105c4576040517f08c379a00000000000000000000000000000000000000000000000000000000081526004016105bb906115b6565b60405180910390fd5b6040518060e001604052808581526020018481526020018381526020018281526020014281526020016001151581526020016000151581525060028660405161060d919061147b565b9081526020016040518091039020600082015181600001908161063091906117e2565b50602082015181600101908161064691906117e2565b50604082015181600201908161065c91906117e2565b50606082015181600301908161067291906117e2565b506080820151816004015560a08201518160050160006101000a81548160ff02191690831515021790555060c08201518160050160016101000a81548160ff0219169083151502179055509050503373ffffffffffffffffffffffffffffffffffffffff16856040516106e5919061147b565b60405180910390207f03f262da71aacb4fd3ac953d335e55d4e2ea91176b1a20485c500341130b10e08660405161071c91906118b4565b60405180910390a35050505050565b60008054906101000a900473ffffffffffffffffffffffffffffffffffffffff1673ffffffffffffffffffffffffffffffffffffffff163373ffffffffffffffffffffffffffffffffffffffff16146107b9576040517f08c379a00000000000000000000000000000000000000000000000000000000081526004016107b0906113b3565b60405180910390fd5b60018060008373ffffffffffffffffffffffffffffffffffffffff1673ffffffffffffffffffffffffffffffffffffffff16815260200190815260200160002060006101000a81548160ff0219169083151502179055508073ffffffffffffffffffffffffffffffffffffffff167f8b4006ca14f23d4e7aa8d120d1ab7c3761d650eefac1a5d6732dbea94b54ea2460405160405180910390a250565b60028180516020810182018051848252602083016020850120818352809550505050505060009150905080600001805461088f90611605565b80601f01602080910402602001604051908101604052809291908181526020018280546108bb90611605565b80156109085780601f106108dd57610100808354040283529160200191610908565b820191906000526020600020905b8154815290600101906020018083116108eb57829003601f168201915b50505050509080600101805461091d90611605565b80601f016020809104026020016040519081016040528092919081815260200182805461094990611605565b80156109965780601f1061096b57610100808354040283529160200191610996565b820191906000526020600020905b81548152906001019060200180831161097957829003601f168201915b5050505050908060020180546109ab90611605565b80601f01602080910402602001604051908101604052809291908181526020018280546109d790611605565b8015610a245780601f106109f957610100808354040283529160200191610a24565b820191906000526020600020905b815481529060010190602001808311610a0757829003601f168201915b505050505090806003018054610a3990611605565b80601f0160208091040260200160405190810160405280929190818152602001828054610a6590611605565b8015610ab25780601f10610a8757610100808354040283529160200191610ab2565b820191906000526020600020905b815481529060010190602001808311610a9557829003601f168201915b5050505050908060040154908060050160009054906101000a900460ff16908060050160019054906101000a900460ff16905087565b6060806060806000806000600288604051610b03919061147b565b90815260200160405180910390206040518060e0016040529081600082018054610b2c90611605565b80601f0160208091040260200160405190810160405280929190818152602001828054610b5890611605565b8015610ba55780601f10610b7a57610100808354040283529160200191610ba5565b820191906000526020600020905b815481529060010190602001808311610b8857829003601f168201915b50505050508152602001600182018054610bbe90611605565b80601f0160208091040260200160405190810160405280929190818152602001828054610bea90611605565b8015610c375780601f10610c0c57610100808354040283529160200191610c37565b820191906000526020600020905b815481529060010190602001808311610c1a57829003601f168201915b50505050508152602001600282018054610c5090611605565b80601f0160208091040260200160405190810160405280929190818152602001828054610c7c90611605565b8015610cc95780601f10610c9e57610100808354040283529160200191610cc9565b820191906000526020600020905b815481529060010190602001808311610cac57829003601f168201915b50505050508152602001600382018054610ce290611605565b80601f0160208091040260200160405190810160405280929190818152602001828054610d0e90611605565b8015610d5b5780601f10610d3057610100808354040283529160200191610d5b565b820191906000526020600020905b815481529060010190602001808311610d3e57829003601f168201915b50505050508152602001600482015481526020016005820160009054906101000a900460ff161515151581526020016005820160019054906101000a900460ff161515151581525050905060008160a001518015610dbb57508160c00151155b90508160000151826020015183604001518460600151856080015185975097509750975097509750505091939550919395565b60016020528060005260406000206000915054906101000a900460ff1681565b60008054906101000a900473ffffffffffffffffffffffffffffffffffffffff1681565b6000604051905090565b600080fd5b600080fd5b600073ffffffffffffffffffffffffffffffffffffffff82169050919050565b6000610e7182610e46565b9050919050565b610e8181610e66565b8114610e8c57600080fd5b50565b600081359050610e9e81610e78565b92915050565b600060208284031215610eba57610eb9610e3c565b5b6000610ec884828501610e8f565b91505092915050565b600080fd5b600080fd5b6000601f19601f8301169050919050565b7f4e487b7100000000000000000000000000000000000000000000000000000000600052604160045260246000fd5b610f2482610edb565b810181811067ffffffffffffffff82111715610f4357610f42610eec565b5b80604052505050565b6000610f56610e32565b9050610f628282610f1b565b919050565b600067ffffffffffffffff821115610f8257610f81610eec565b5b610f8b82610edb565b9050602081019050919050565b82818337600083830152505050565b6000610fba610fb584610f67565b610f4c565b905082815260208101848484011115610fd657610fd5610ed6565b5b610fe1848285610f98565b509392505050565b600082601f830112610ffe57610ffd610ed1565b5b813561100e848260208601610fa7565b91505092915050565b60006020828403121561102d5761102c610e3c565b5b600082013567ffffffffffffffff81111561104b5761104a610e41565b5b61105784828501610fe9565b91505092915050565b600080600080600060a0868803121561107c5761107b610e3c565b5b600086013567ffffffffffffffff81111561109a57611099610e41565b5b6110a688828901610fe9565b955050602086013567ffffffffffffffff8111156110c7576110c6610e41565b5b6110d388828901610fe9565b945050604086013567ffffffffffffffff8111156110f4576110f3610e41565b5b61110088828901610fe9565b935050606086013567ffffffffffffffff81111561112157611120610e41565b5b61112d88828901610fe9565b925050608086013567ffffffffffffffff81111561114e5761114d610e41565b5b61115a88828901610fe9565b9150509295509295909350565b600081519050919050565b600082825260208201905092915050565b60005b838110156111a1578082015181840152602081019050611186565b60008484015250505050565b60006111b882611167565b6111c28185611172565b93506111d2818560208601611183565b6111db81610edb565b840191505092915050565b6000819050919050565b6111f9816111e6565b82525050565b60008115159050919050565b611214816111ff565b82525050565b600060e0820190508181036000830152611234818a6111ad565b9050818103602083015261124881896111ad565b9050818103604083015261125c81886111ad565b9050818103606083015261127081876111ad565b905061127f60808301866111f0565b61128c60a083018561120b565b61129960c083018461120b565b98975050505050505050565b600060c08201905081810360008301526112bf81896111ad565b905081810360208301526112d381886111ad565b905081810360408301526112e781876111ad565b905081810360608301526112fb81866111ad565b905061130a60808301856111f0565b61131760a083018461120b565b979650505050505050565b6000602082019050611337600083018461120b565b92915050565b61134681610e66565b82525050565b6000602082019050611361600083018461133d565b92915050565b7f4f6e6c792061646d696e2063616e20706572666f726d20746869730000000000600082015250565b600061139d601b83611172565b91506113a882611367565b602082019050919050565b600060208201905081810360008301526113cc81611390565b9050919050565b7f4e6f7420616e20617574686f72697a6564206973737565720000000000000000600082015250565b6000611409601883611172565b9150611414826113d3565b602082019050919050565b60006020820190508181036000830152611438816113fc565b9050919050565b600081905092915050565b600061145582611167565b61145f818561143f565b935061146f818560208601611183565b80840191505092915050565b6000611487828461144a565b915081905092915050565b7f436572746966696361746520646f6573206e6f74206578697374000000000000600082015250565b60006114c8601a83611172565b91506114d382611492565b602082019050919050565b600060208201905081810360008301526114f7816114bb565b9050919050565b7f436572746966696361746520616c7265616479207265766f6b65640000000000600082015250565b6000611534601b83611172565b915061153f826114fe565b602082019050919050565b6000602082019050818103600083015261156381611527565b9050919050565b7f436572746966696361746520616c726561647920726567697374657265640000600082015250565b60006115a0601e83611172565b91506115ab8261156a565b602082019050919050565b600060208201905081810360008301526115cf81611593565b9050919050565b7f4e487b7100000000000000000000000000000000000000000000000000000000600052602260045260246000fd5b6000600282049050600182168061161d57607f821691505b6020821081036116305761162f6115d6565b5b50919050565b60008190508160005260206000209050919050565b60006020601f8301049050919050565b600082821b905092915050565b6000600883026116987fffffffffffffffffffffffffffffffffffffffffffffffffffffffffffffffff8261165b565b6116a2868361165b565b95508019841693508086168417925050509392505050565b6000819050919050565b60006116df6116da6116d5846111e6565b6116ba565b6111e6565b9050919050565b6000819050919050565b6116f9836116c4565b61170d611705826116e6565b848454611668565b825550505050565b600090565b611722611715565b61172d8184846116f0565b505050565b5b818110156117515761174660008261171a565b600181019050611733565b5050565b601f8211156117965761176781611636565b6117708461164b565b8101602085101561177f578190505b61179361178b8561164b565b830182611732565b50505b505050565b600082821c905092915050565b60006117b96000198460080261179b565b1980831691505092915050565b60006117d283836117a8565b9150826002028217905092915050565b6117eb82611167565b67ffffffffffffffff81111561180457611803610eec565b5b61180e8254611605565b611819828285611755565b600060209050601f83116001811461184c576000841561183a578287015190505b61184485826117c6565b8655506118ac565b601f19841661185a86611636565b60005b828110156118825784890151825560018201915060208501945060208101905061185d565b8683101561189f578489015161189b601f8916826117a8565b8355505b6001600288020188555050505b505050505050565b600060208201905081810360008301526118ce81846111ad565b90509291505056fea2646970667358221220ed386e5b30bc1323526bd5ce52bf2926f17a7bb22cc823c405cc0770ff4e684264736f6c63430008180033",
  "linkReferences": {},
  "deployedLinkReferences": {}
}